{
  "_format": "hh-sol-artifact-1",
  "contractName": "MyEpicNFT",
  "sourceName": "contracts/MyEpicNFT.sol",
  "abi": [
    {
      "inputs": [],
      "stateMutability": "nonpayable",
      "type": "constructor"
    },
    {
      "anonymous": false,
      "inputs": [
        {
          "indexed": true,
          "internalType": "address",
          "name": "owner",
          "type": "address"
        },
        {
          "indexed": true,
          "internalType": "address",
          "name": "approved",
          "type": "address"
        },
        {
          "indexed": true,
          "internalType": "uint256",
          "name": "tokenId",
          "type": "uint256"
        }
      ],
      "name": "Approval",
      "type": "event"
    },
    {
      "anonymous": false,
      "inputs": [
        {
          "indexed": true,
          "internalType": "address",
          "name": "owner",
          "type": "address"
        },
        {
          "indexed": true,
          "internalType": "address",
          "name": "operator",
          "type": "address"
        },
        {
          "indexed": false,
          "internalType": "bool",
          "name": "approved",
          "type": "bool"
        }
      ],
      "name": "ApprovalForAll",
      "type": "event"
    },
    {
      "anonymous": false,
      "inputs": [
        {
          "indexed": false,
          "internalType": "address",
          "name": "sender",
          "type": "address"
        },
        {
          "indexed": false,
          "internalType": "uint256",
          "name": "tokenId",
          "type": "uint256"
        }
      ],
      "name": "NewEpicNFTMinted",
      "type": "event"
    },
    {
      "anonymous": false,
      "inputs": [
        {
          "indexed": true,
          "internalType": "address",
          "name": "from",
          "type": "address"
        },
        {
          "indexed": true,
          "internalType": "address",
          "name": "to",
          "type": "address"
        },
        {
          "indexed": true,
          "internalType": "uint256",
          "name": "tokenId",
          "type": "uint256"
        }
      ],
      "name": "Transfer",
      "type": "event"
    },
    {
      "inputs": [
        {
          "internalType": "address",
          "name": "to",
          "type": "address"
        },
        {
          "internalType": "uint256",
          "name": "tokenId",
          "type": "uint256"
        }
      ],
      "name": "approve",
      "outputs": [],
      "stateMutability": "nonpayable",
      "type": "function"
    },
    {
      "inputs": [
        {
          "internalType": "address",
          "name": "owner",
          "type": "address"
        }
      ],
      "name": "balanceOf",
      "outputs": [
        {
          "internalType": "uint256",
          "name": "",
          "type": "uint256"
        }
      ],
      "stateMutability": "view",
      "type": "function"
    },
    {
      "inputs": [
        {
          "internalType": "uint256",
          "name": "tokenId",
          "type": "uint256"
        }
      ],
      "name": "getApproved",
      "outputs": [
        {
          "internalType": "address",
          "name": "",
          "type": "address"
        }
      ],
      "stateMutability": "view",
      "type": "function"
    },
    {
      "inputs": [],
      "name": "getTotalNFTsMintedSoFar",
      "outputs": [
        {
          "internalType": "uint256",
          "name": "",
          "type": "uint256"
        }
      ],
      "stateMutability": "view",
      "type": "function"
    },
    {
      "inputs": [
        {
          "internalType": "address",
          "name": "owner",
          "type": "address"
        },
        {
          "internalType": "address",
          "name": "operator",
          "type": "address"
        }
      ],
      "name": "isApprovedForAll",
      "outputs": [
        {
          "internalType": "bool",
          "name": "",
          "type": "bool"
        }
      ],
      "stateMutability": "view",
      "type": "function"
    },
    {
      "inputs": [],
      "name": "makeAnEpicNFT",
      "outputs": [],
      "stateMutability": "nonpayable",
      "type": "function"
    },
    {
      "inputs": [],
      "name": "name",
      "outputs": [
        {
          "internalType": "string",
          "name": "",
          "type": "string"
        }
      ],
      "stateMutability": "view",
      "type": "function"
    },
    {
      "inputs": [
        {
          "internalType": "uint256",
          "name": "tokenId",
          "type": "uint256"
        }
      ],
      "name": "ownerOf",
      "outputs": [
        {
          "internalType": "address",
          "name": "",
          "type": "address"
        }
      ],
      "stateMutability": "view",
      "type": "function"
    },
    {
      "inputs": [
        {
          "internalType": "uint256",
          "name": "tokenId",
          "type": "uint256"
        },
        {
          "internalType": "string",
          "name": "input",
          "type": "string"
        }
      ],
      "name": "pickRandomSkinColor",
      "outputs": [
        {
          "internalType": "string",
          "name": "",
          "type": "string"
        }
      ],
      "stateMutability": "view",
      "type": "function"
    },
    {
      "inputs": [
        {
          "internalType": "uint256",
          "name": "tokenId",
          "type": "uint256"
        }
      ],
      "name": "pickRandomSpaceColor",
      "outputs": [
        {
          "internalType": "string",
          "name": "",
          "type": "string"
        }
      ],
      "stateMutability": "view",
      "type": "function"
    },
    {
      "inputs": [
        {
          "internalType": "address",
          "name": "from",
          "type": "address"
        },
        {
          "internalType": "address",
          "name": "to",
          "type": "address"
        },
        {
          "internalType": "uint256",
          "name": "tokenId",
          "type": "uint256"
        }
      ],
      "name": "safeTransferFrom",
      "outputs": [],
      "stateMutability": "nonpayable",
      "type": "function"
    },
    {
      "inputs": [
        {
          "internalType": "address",
          "name": "from",
          "type": "address"
        },
        {
          "internalType": "address",
          "name": "to",
          "type": "address"
        },
        {
          "internalType": "uint256",
          "name": "tokenId",
          "type": "uint256"
        },
        {
          "internalType": "bytes",
          "name": "_data",
          "type": "bytes"
        }
      ],
      "name": "safeTransferFrom",
      "outputs": [],
      "stateMutability": "nonpayable",
      "type": "function"
    },
    {
      "inputs": [
        {
          "internalType": "address",
          "name": "operator",
          "type": "address"
        },
        {
          "internalType": "bool",
          "name": "approved",
          "type": "bool"
        }
      ],
      "name": "setApprovalForAll",
      "outputs": [],
      "stateMutability": "nonpayable",
      "type": "function"
    },
    {
      "inputs": [
        {
          "internalType": "bytes4",
          "name": "interfaceId",
          "type": "bytes4"
        }
      ],
      "name": "supportsInterface",
      "outputs": [
        {
          "internalType": "bool",
          "name": "",
          "type": "bool"
        }
      ],
      "stateMutability": "view",
      "type": "function"
    },
    {
      "inputs": [],
      "name": "symbol",
      "outputs": [
        {
          "internalType": "string",
          "name": "",
          "type": "string"
        }
      ],
      "stateMutability": "view",
      "type": "function"
    },
    {
      "inputs": [
        {
          "internalType": "uint256",
          "name": "tokenId",
          "type": "uint256"
        }
      ],
      "name": "tokenURI",
      "outputs": [
        {
          "internalType": "string",
          "name": "",
          "type": "string"
        }
      ],
      "stateMutability": "view",
      "type": "function"
    },
    {
      "inputs": [
        {
          "internalType": "address",
          "name": "from",
          "type": "address"
        },
        {
          "internalType": "address",
          "name": "to",
          "type": "address"
        },
        {
          "internalType": "uint256",
          "name": "tokenId",
          "type": "uint256"
        }
      ],
      "name": "transferFrom",
      "outputs": [],
      "stateMutability": "nonpayable",
      "type": "function"
    }
  ],
  "bytecode": "0x60806040526040518060800160405280604981526020016200596a604991396008908051906020019062000035929190620006ef565b506040518061122001604052806111f28152602001620047786111f29139600990805190602001906200006a929190620006ef565b506040518060c001604052806040518060400160405280600781526020017f233037333334390000000000000000000000000000000000000000000000000081525081526020016040518060400160405280600781526020017f233030303030300000000000000000000000000000000000000000000000000081525081526020016040518060400160405280600781526020017f233144343034340000000000000000000000000000000000000000000000000081525081526020016040518060400160405280600781526020017f233143343533320000000000000000000000000000000000000000000000000081525081526020016040518060400160405280600781526020017f233141333635440000000000000000000000000000000000000000000000000081525081526020016040518060400160405280600781526020017f2333323236353900000000000000000000000000000000000000000000000000815250815250600a906006620001e892919062000780565b50604051806101c001604052806040518060400160405280600781526020017f236437656266340000000000000000000000000000000000000000000000000081525081526020016040518060400160405280600781526020017f233141323032430000000000000000000000000000000000000000000000000081525081526020016040518060400160405280600781526020017f236266643765320000000000000000000000000000000000000000000000000081525081526020016040518060400160405280600781526020017f236161633764310000000000000000000000000000000000000000000000000081525081526020016040518060400160405280600781526020017f236538343530350000000000000000000000000000000000000000000000000081525081526020016040518060400160405280600781526020017f236263333530630000000000000000000000000000000000000000000000000081525081526020016040518060400160405280600781526020017f233338413136390000000000000000000000000000000000000000000000000081525081526020016040518060400160405280600781526020017f233246383535410000000000000000000000000000000000000000000000000081525081526020016040518060400160405280600781526020017f233331393739350000000000000000000000000000000000000000000000000081525081526020016040518060400160405280600781526020017f233243374137420000000000000000000000000000000000000000000000000081525081526020016040518060400160405280600781526020017f233830354144350000000000000000000000000000000000000000000000000081525081526020016040518060400160405280600781526020017f233642343643310000000000000000000000000000000000000000000000000081525081526020016040518060400160405280600781526020017f234435334638430000000000000000000000000000000000000000000000000081525081526020016040518060400160405280600781526020017f2342383332383000000000000000000000000000000000000000000000000000815250815250600b90600e6200053f929190620007e7565b503480156200054d57600080fd5b506040518060400160405280600c81526020017f417374726f6e6175744e465400000000000000000000000000000000000000008152506040518060400160405280600981526020017f415354524f4e41555400000000000000000000000000000000000000000000008152508160009080519060200190620005d2929190620006ef565b508060019080519060200190620005eb929190620006ef565b5050506200061d60405180606001604052806023815260200162004755602391396200062360201b6200135b1760201c565b62000a08565b620006c3816040516024016200063a91906200091c565b6040516020818303038152906040527f41304fac000000000000000000000000000000000000000000000000000000007bffffffffffffffffffffffffffffffffffffffffffffffffffffffff19166020820180517bffffffffffffffffffffffffffffffffffffffffffffffffffffffff8381831617835250505050620006c660201b60201c565b50565b60008151905060006a636f6e736f6c652e6c6f679050602083016000808483855afa5050505050565b828054620006fd9062000992565b90600052602060002090601f0160209004810192826200072157600085556200076d565b82601f106200073c57805160ff19168380011785556200076d565b828001600101855582156200076d579182015b828111156200076c5782518255916020019190600101906200074f565b5b5090506200077c91906200084e565b5090565b828054828255906000526020600020908101928215620007d4579160200282015b82811115620007d3578251829080519060200190620007c2929190620006ef565b5091602001919060010190620007a1565b5b509050620007e391906200086d565b5090565b8280548282559060005260206000209081019282156200083b579160200282015b828111156200083a57825182908051906020019062000829929190620006ef565b509160200191906001019062000808565b5b5090506200084a91906200086d565b5090565b5b80821115620008695760008160009055506001016200084f565b5090565b5b8082111562000891576000818162000887919062000895565b506001016200086e565b5090565b508054620008a39062000992565b6000825580601f10620008b75750620008d8565b601f016020900490600052602060002090810190620008d791906200084e565b5b50565b6000620008e88262000940565b620008f481856200094b565b9350620009068185602086016200095c565b6200091181620009f7565b840191505092915050565b60006020820190508181036000830152620009388184620008db565b905092915050565b600081519050919050565b600082825260208201905092915050565b60005b838110156200097c5780820151818401526020810190506200095f565b838111156200098c576000848401525b50505050565b60006002820490506001821680620009ab57607f821691505b60208210811415620009c257620009c1620009c8565b5b50919050565b7f4e487b7100000000000000000000000000000000000000000000000000000000600052602260045260246000fd5b6000601f19601f8301169050919050565b613d3d8062000a186000396000f3fe608060405234801561001057600080fd5b506004361061010b5760003560e01c80636352211e116100a2578063b88d4fde11610071578063b88d4fde146102ca578063bd2a5797146102e6578063c87b56dd14610316578063de9d132f14610346578063e985e9c5146103505761010b565b80636352211e1461023057806370a082311461026057806395d89b4114610290578063a22cb465146102ae5761010b565b8063095ea7b3116100de578063095ea7b3146101ac57806323b872dd146101c85780632995532f146101e457806342842e0e146102145761010b565b806301ffc9a714610110578063060475901461014057806306fdde031461015e578063081812fc1461017c575b600080fd5b61012a60048036038101906101259190612656565b610380565b6040516101379190613563565b60405180910390f35b610148610462565b60405161015591906137fe565b60405180910390f35b610166610473565b604051610173919061357e565b60405180910390f35b610196600480360381019061019191906126a8565b610505565b6040516101a391906134d3565b60405180910390f35b6101c660048036038101906101c1919061261a565b61058a565b005b6101e260048036038101906101dd9190612514565b6106a2565b005b6101fe60048036038101906101f991906126a8565b610702565b60405161020b919061357e565b60405180910390f35b61022e60048036038101906102299190612514565b610820565b005b61024a600480360381019061024591906126a8565b610840565b60405161025791906134d3565b60405180910390f35b61027a600480360381019061027591906124af565b6108f2565b60405161028791906137fe565b60405180910390f35b6102986109aa565b6040516102a5919061357e565b60405180910390f35b6102c860048036038101906102c391906125de565b610a3c565b005b6102e460048036038101906102df9190612563565b610bbd565b005b61030060048036038101906102fb91906126d1565b610c1f565b60405161030d919061357e565b60405180910390f35b610330600480360381019061032b91906126a8565b610d40565b60405161033d919061357e565b60405180910390f35b61034e610e92565b005b61036a600480360381019061036591906124d8565b6112c7565b6040516103779190613563565b60405180910390f35b60007f80ac58cd000000000000000000000000000000000000000000000000000000007bffffffffffffffffffffffffffffffffffffffffffffffffffffffff1916827bffffffffffffffffffffffffffffffffffffffffffffffffffffffff1916148061044b57507f5b5e139f000000000000000000000000000000000000000000000000000000007bffffffffffffffffffffffffffffffffffffffffffffffffffffffff1916827bffffffffffffffffffffffffffffffffffffffffffffffffffffffff1916145b8061045b575061045a826113f4565b5b9050919050565b600061046e600761145e565b905090565b60606000805461048290613acd565b80601f01602080910402602001604051908101604052809291908181526020018280546104ae90613acd565b80156104fb5780601f106104d0576101008083540402835291602001916104fb565b820191906000526020600020905b8154815290600101906020018083116104de57829003601f168201915b5050505050905090565b60006105108261146c565b61054f576040517f08c379a00000000000000000000000000000000000000000000000000000000081526004016105469061375e565b60405180910390fd5b6004600083815260200190815260200160002060009054906101000a900473ffffffffffffffffffffffffffffffffffffffff169050919050565b600061059582610840565b90508073ffffffffffffffffffffffffffffffffffffffff168373ffffffffffffffffffffffffffffffffffffffff161415610606576040517f08c379a00000000000000000000000000000000000000000000000000000000081526004016105fd906137be565b60405180910390fd5b8073ffffffffffffffffffffffffffffffffffffffff166106256114d8565b73ffffffffffffffffffffffffffffffffffffffff16148061065457506106538161064e6114d8565b6112c7565b5b610693576040517f08c379a000000000000000000000000000000000000000000000000000000000815260040161068a9061367e565b60405180910390fd5b61069d83836114e0565b505050565b6106b36106ad6114d8565b82611599565b6106f2576040517f08c379a00000000000000000000000000000000000000000000000000000000081526004016106e9906137de565b60405180910390fd5b6106fd838383611677565b505050565b60606000610736610712846118d3565b6040516020016107229190613457565b604051602081830303815290604052611a80565b9050600a80549050816107499190613b48565b9050600a8181548110610785577f4e487b7100000000000000000000000000000000000000000000000000000000600052603260045260246000fd5b90600052602060002001805461079a90613acd565b80601f01602080910402602001604051908101604052809291908181526020018280546107c690613acd565b80156108135780601f106107e857610100808354040283529160200191610813565b820191906000526020600020905b8154815290600101906020018083116107f657829003601f168201915b5050505050915050919050565b61083b83838360405180602001604052806000815250610bbd565b505050565b6000806002600084815260200190815260200160002060009054906101000a900473ffffffffffffffffffffffffffffffffffffffff169050600073ffffffffffffffffffffffffffffffffffffffff168173ffffffffffffffffffffffffffffffffffffffff1614156108e9576040517f08c379a00000000000000000000000000000000000000000000000000000000081526004016108e0906136be565b60405180910390fd5b80915050919050565b60008073ffffffffffffffffffffffffffffffffffffffff168273ffffffffffffffffffffffffffffffffffffffff161415610963576040517f08c379a000000000000000000000000000000000000000000000000000000000815260040161095a9061369e565b60405180910390fd5b600360008373ffffffffffffffffffffffffffffffffffffffff1673ffffffffffffffffffffffffffffffffffffffff168152602001908152602001600020549050919050565b6060600180546109b990613acd565b80601f01602080910402602001604051908101604052809291908181526020018280546109e590613acd565b8015610a325780601f10610a0757610100808354040283529160200191610a32565b820191906000526020600020905b815481529060010190602001808311610a1557829003601f168201915b5050505050905090565b610a446114d8565b73ffffffffffffffffffffffffffffffffffffffff168273ffffffffffffffffffffffffffffffffffffffff161415610ab2576040517f08c379a0000000000000000000000000000000000000000000000000000000008152600401610aa99061363e565b60405180910390fd5b8060056000610abf6114d8565b73ffffffffffffffffffffffffffffffffffffffff1673ffffffffffffffffffffffffffffffffffffffff16815260200190815260200160002060008473ffffffffffffffffffffffffffffffffffffffff1673ffffffffffffffffffffffffffffffffffffffff16815260200190815260200160002060006101000a81548160ff0219169083151502179055508173ffffffffffffffffffffffffffffffffffffffff16610b6c6114d8565b73ffffffffffffffffffffffffffffffffffffffff167f17307eab39ab6107e8899845ad3d59bd9653f200f220920489ca2b5937696c3183604051610bb19190613563565b60405180910390a35050565b610bce610bc86114d8565b83611599565b610c0d576040517f08c379a0000000000000000000000000000000000000000000000000000000008152600401610c04906137de565b60405180910390fd5b610c1984848484611ab3565b50505050565b60606000610c5583610c30866118d3565b604051602001610c41929190613291565b604051602081830303815290604052611a80565b9050600b8054905081610c689190613b48565b9050600b8181548110610ca4577f4e487b7100000000000000000000000000000000000000000000000000000000600052603260045260246000fd5b906000526020600020018054610cb990613acd565b80601f0160208091040260200160405190810160405280929190818152602001828054610ce590613acd565b8015610d325780601f10610d0757610100808354040283529160200191610d32565b820191906000526020600020905b815481529060010190602001808311610d1557829003601f168201915b505050505091505092915050565b6060610d4b8261146c565b610d8a576040517f08c379a0000000000000000000000000000000000000000000000000000000008152600401610d819061371e565b60405180910390fd5b6000600660008481526020019081526020016000208054610daa90613acd565b80601f0160208091040260200160405190810160405280929190818152602001828054610dd690613acd565b8015610e235780601f10610df857610100808354040283529160200191610e23565b820191906000526020600020905b815481529060010190602001808311610e0657829003601f168201915b505050505090506000610e34611b0f565b9050600081511415610e4a578192505050610e8d565b600082511115610e7f578082604051602001610e67929190613291565b60405160208183030381529060405292505050610e8d565b610e8884611b26565b925050505b919050565b6000610e9e600761145e565b9050601e8110610ee3576040517f08c379a0000000000000000000000000000000000000000000000000000000008152600401610eda9061373e565b60405180910390fd5b6000610eee82610702565b90506000610f31836040518060400160405280600681526020017f48454c4d45540000000000000000000000000000000000000000000000000000815250610c1f565b90506000610f74846040518060400160405280600681526020017f4a41434b45540000000000000000000000000000000000000000000000000000815250610c1f565b90506000610fb7856040518060400160405280600481526020017f4e45434b00000000000000000000000000000000000000000000000000000000815250610c1f565b90506000610ffa866040518060400160405280600981526020017f43484553545f544f500000000000000000000000000000000000000000000000815250610c1f565b9050600061103d876040518060400160405280600c81526020017f43484553545f424f54544f4d0000000000000000000000000000000000000000815250610c1f565b905085604051602001611050919061336b565b6040516020818303038152906040529550846040516020016110729190613479565b60405160208183030381529060405294508360405160200161109491906134a6565b6040516020818303038152906040529350826040516020016110b69190613398565b6040516020818303038152906040529250816040516020016110d891906133c5565b6040516020818303038152906040529150806040516020016110fa919061333e565b60405160208183030381529060405290506000868686868686604051602001611128969594939291906132b5565b6040516020818303038152906040529050600060088260096040516020016111529392919061330d565b6040516020818303038152906040529050600061119561117183611bcd565b60405160200161118191906133f2565b604051602081830303815290604052611bcd565b90506000816040516020016111aa9190613435565b60405160208183030381529060405290506111f96040518060400160405280601581526020017f0a2d2d2d2d2d2d2d2d2d2d2d2d2d2d2d2d2d2d2d2d000000000000000000000081525061135b565b6112028161135b565b6112406040518060400160405280601581526020017f2d2d2d2d2d2d2d2d2d2d2d2d2d2d2d2d2d2d2d2d0a000000000000000000000081525061135b565b61124a338c611d8b565b6112548b82611da9565b611277604051806060016040528060258152602001613ca3602591398c33611e1d565b6112816007611ebc565b7febb98688741ffa4c7589bf325de30cf7becb63de567842e1ccdb6cb949fdc82c338c6040516112b292919061353a565b60405180910390a15050505050505050505050565b6000600560008473ffffffffffffffffffffffffffffffffffffffff1673ffffffffffffffffffffffffffffffffffffffff16815260200190815260200160002060008373ffffffffffffffffffffffffffffffffffffffff1673ffffffffffffffffffffffffffffffffffffffff16815260200190815260200160002060009054906101000a900460ff16905092915050565b6113f18160405160240161136f919061357e565b6040516020818303038152906040527f41304fac000000000000000000000000000000000000000000000000000000007bffffffffffffffffffffffffffffffffffffffffffffffffffffffff19166020820180517bffffffffffffffffffffffffffffffffffffffffffffffffffffffff8381831617835250505050611ed2565b50565b60007f01ffc9a7000000000000000000000000000000000000000000000000000000007bffffffffffffffffffffffffffffffffffffffffffffffffffffffff1916827bffffffffffffffffffffffffffffffffffffffffffffffffffffffff1916149050919050565b600081600001549050919050565b60008073ffffffffffffffffffffffffffffffffffffffff166002600084815260200190815260200160002060009054906101000a900473ffffffffffffffffffffffffffffffffffffffff1673ffffffffffffffffffffffffffffffffffffffff1614159050919050565b600033905090565b816004600083815260200190815260200160002060006101000a81548173ffffffffffffffffffffffffffffffffffffffff021916908373ffffffffffffffffffffffffffffffffffffffff160217905550808273ffffffffffffffffffffffffffffffffffffffff1661155383610840565b73ffffffffffffffffffffffffffffffffffffffff167f8c5be1e5ebec7d5bd14f71427d1e84f3dd0314c0f7b2291e5b200ac8c7c3b92560405160405180910390a45050565b60006115a48261146c565b6115e3576040517f08c379a00000000000000000000000000000000000000000000000000000000081526004016115da9061365e565b60405180910390fd5b60006115ee83610840565b90508073ffffffffffffffffffffffffffffffffffffffff168473ffffffffffffffffffffffffffffffffffffffff16148061165d57508373ffffffffffffffffffffffffffffffffffffffff1661164584610505565b73ffffffffffffffffffffffffffffffffffffffff16145b8061166e575061166d81856112c7565b5b91505092915050565b8273ffffffffffffffffffffffffffffffffffffffff1661169782610840565b73ffffffffffffffffffffffffffffffffffffffff16146116ed576040517f08c379a00000000000000000000000000000000000000000000000000000000081526004016116e49061377e565b60405180910390fd5b600073ffffffffffffffffffffffffffffffffffffffff168273ffffffffffffffffffffffffffffffffffffffff16141561175d576040517f08c379a00000000000000000000000000000000000000000000000000000000081526004016117549061361e565b60405180910390fd5b611768838383611efb565b6117736000826114e0565b6001600360008573ffffffffffffffffffffffffffffffffffffffff1673ffffffffffffffffffffffffffffffffffffffff16815260200190815260200160002060008282546117c391906139e3565b925050819055506001600360008473ffffffffffffffffffffffffffffffffffffffff1673ffffffffffffffffffffffffffffffffffffffff168152602001908152602001600020600082825461181a9190613902565b92505081905550816002600083815260200190815260200160002060006101000a81548173ffffffffffffffffffffffffffffffffffffffff021916908373ffffffffffffffffffffffffffffffffffffffff160217905550808273ffffffffffffffffffffffffffffffffffffffff168473ffffffffffffffffffffffffffffffffffffffff167fddf252ad1be2c89b69c2b068fc378daa952ba7f163c4a11628f55a4df523b3ef60405160405180910390a4505050565b6060600082141561191b576040518060400160405280600181526020017f30000000000000000000000000000000000000000000000000000000000000008152509050611a7b565b600082905060005b6000821461194d57808061193690613aff565b915050600a826119469190613958565b9150611923565b60008167ffffffffffffffff81111561198f577f4e487b7100000000000000000000000000000000000000000000000000000000600052604160045260246000fd5b6040519080825280601f01601f1916602001820160405280156119c15781602001600182028036833780820191505090505b5090505b60008514611a74576001826119da91906139e3565b9150600a856119e99190613b48565b60306119f59190613902565b60f81b818381518110611a31577f4e487b7100000000000000000000000000000000000000000000000000000000600052603260045260246000fd5b60200101907effffffffffffffffffffffffffffffffffffffffffffffffffffffffffffff1916908160001a905350600a85611a6d9190613958565b94506119c5565b8093505050505b919050565b600081604051602001611a93919061327a565b6040516020818303038152906040528051906020012060001c9050919050565b611abe848484611677565b611aca84848484611f00565b611b09576040517f08c379a0000000000000000000000000000000000000000000000000000000008152600401611b00906135de565b60405180910390fd5b50505050565b606060405180602001604052806000815250905090565b6060611b318261146c565b611b70576040517f08c379a0000000000000000000000000000000000000000000000000000000008152600401611b679061379e565b60405180910390fd5b6000611b7a611b0f565b90506000815111611b9a5760405180602001604052806000815250611bc5565b80611ba4846118d3565b604051602001611bb5929190613291565b6040516020818303038152906040525b915050919050565b60606000825190506000811415611bf65760405180602001604052806000815250915050611d86565b60006003600283611c079190613902565b611c119190613958565b6004611c1d9190613989565b90506000602082611c2e9190613902565b67ffffffffffffffff811115611c6d577f4e487b7100000000000000000000000000000000000000000000000000000000600052604160045260246000fd5b6040519080825280601f01601f191660200182016040528015611c9f5781602001600182028036833780820191505090505b5090506000604051806060016040528060408152602001613cc8604091399050600181016020830160005b86811015611d435760038101905062ffffff818a015116603f8160121c168401518060081b905060ff603f83600c1c1686015116810190508060081b905060ff603f8360061c1686015116810190508060081b905060ff603f831686015116810190508060e01b90508084526004840193505050611cca565b506003860660018114611d5d5760028114611d6d57611d78565b613d3d60f01b6002830352611d78565b603d60f81b60018303525b508484525050819450505050505b919050565b611da5828260405180602001604052806000815250612097565b5050565b611db28261146c565b611df1576040517f08c379a0000000000000000000000000000000000000000000000000000000008152600401611de8906136de565b60405180910390fd5b80600660008481526020019081526020016000209080519060200190611e189291906122d3565b505050565b611eb7838383604051602401611e35939291906135a0565b6040516020818303038152906040527fe3849f79000000000000000000000000000000000000000000000000000000007bffffffffffffffffffffffffffffffffffffffffffffffffffffffff19166020820180517bffffffffffffffffffffffffffffffffffffffffffffffffffffffff8381831617835250505050611ed2565b505050565b6001816000016000828254019250508190555050565b60008151905060006a636f6e736f6c652e6c6f679050602083016000808483855afa5050505050565b505050565b6000611f218473ffffffffffffffffffffffffffffffffffffffff166120f2565b1561208a578373ffffffffffffffffffffffffffffffffffffffff1663150b7a02611f4a6114d8565b8786866040518563ffffffff1660e01b8152600401611f6c94939291906134ee565b602060405180830381600087803b158015611f8657600080fd5b505af1925050508015611fb757506040513d601f19601f82011682018060405250810190611fb4919061267f565b60015b61203a573d8060008114611fe7576040519150601f19603f3d011682016040523d82523d6000602084013e611fec565b606091505b50600081511415612032576040517f08c379a0000000000000000000000000000000000000000000000000000000008152600401612029906135de565b60405180910390fd5b805181602001fd5b63150b7a0260e01b7bffffffffffffffffffffffffffffffffffffffffffffffffffffffff1916817bffffffffffffffffffffffffffffffffffffffffffffffffffffffff19161491505061208f565b600190505b949350505050565b6120a18383612105565b6120ae6000848484611f00565b6120ed576040517f08c379a00000000000000000000000000000000000000000000000000000000081526004016120e4906135de565b60405180910390fd5b505050565b600080823b905060008111915050919050565b600073ffffffffffffffffffffffffffffffffffffffff168273ffffffffffffffffffffffffffffffffffffffff161415612175576040517f08c379a000000000000000000000000000000000000000000000000000000000815260040161216c906136fe565b60405180910390fd5b61217e8161146c565b156121be576040517f08c379a00000000000000000000000000000000000000000000000000000000081526004016121b5906135fe565b60405180910390fd5b6121ca60008383611efb565b6001600360008473ffffffffffffffffffffffffffffffffffffffff1673ffffffffffffffffffffffffffffffffffffffff168152602001908152602001600020600082825461221a9190613902565b92505081905550816002600083815260200190815260200160002060006101000a81548173ffffffffffffffffffffffffffffffffffffffff021916908373ffffffffffffffffffffffffffffffffffffffff160217905550808273ffffffffffffffffffffffffffffffffffffffff16600073ffffffffffffffffffffffffffffffffffffffff167fddf252ad1be2c89b69c2b068fc378daa952ba7f163c4a11628f55a4df523b3ef60405160405180910390a45050565b8280546122df90613acd565b90600052602060002090601f0160209004810192826123015760008555612348565b82601f1061231a57805160ff1916838001178555612348565b82800160010185558215612348579182015b8281111561234757825182559160200191906001019061232c565b5b5090506123559190612359565b5090565b5b8082111561237257600081600090555060010161235a565b5090565b60006123896123848461384a565b613819565b9050828152602081018484840111156123a157600080fd5b6123ac848285613a8b565b509392505050565b60006123c76123c28461387a565b613819565b9050828152602081018484840111156123df57600080fd5b6123ea848285613a8b565b509392505050565b60008135905061240181613c46565b92915050565b60008135905061241681613c5d565b92915050565b60008135905061242b81613c74565b92915050565b60008151905061244081613c74565b92915050565b600082601f83011261245757600080fd5b8135612467848260208601612376565b91505092915050565b600082601f83011261248157600080fd5b81356124918482602086016123b4565b91505092915050565b6000813590506124a981613c8b565b92915050565b6000602082840312156124c157600080fd5b60006124cf848285016123f2565b91505092915050565b600080604083850312156124eb57600080fd5b60006124f9858286016123f2565b925050602061250a858286016123f2565b9150509250929050565b60008060006060848603121561252957600080fd5b6000612537868287016123f2565b9350506020612548868287016123f2565b92505060406125598682870161249a565b9150509250925092565b6000806000806080858703121561257957600080fd5b6000612587878288016123f2565b9450506020612598878288016123f2565b93505060406125a98782880161249a565b925050606085013567ffffffffffffffff8111156125c657600080fd5b6125d287828801612446565b91505092959194509250565b600080604083850312156125f157600080fd5b60006125ff858286016123f2565b925050602061261085828601612407565b9150509250929050565b6000806040838503121561262d57600080fd5b600061263b858286016123f2565b925050602061264c8582860161249a565b9150509250929050565b60006020828403121561266857600080fd5b60006126768482850161241c565b91505092915050565b60006020828403121561269157600080fd5b600061269f84828501612431565b91505092915050565b6000602082840312156126ba57600080fd5b60006126c88482850161249a565b91505092915050565b600080604083850312156126e457600080fd5b60006126f28582860161249a565b925050602083013567ffffffffffffffff81111561270f57600080fd5b61271b85828601612470565b9150509250929050565b61272e81613a17565b82525050565b61273d81613a29565b82525050565b600061274e826138bf565b61275881856138d5565b9350612768818560208601613a9a565b61277181613c35565b840191505092915050565b6000612787826138ca565b61279181856138e6565b93506127a1818560208601613a9a565b6127aa81613c35565b840191505092915050565b60006127c0826138ca565b6127ca81856138f7565b93506127da818560208601613a9a565b80840191505092915050565b600081546127f381613acd565b6127fd81866138f7565b9450600182166000811461281857600181146128295761285c565b60ff1983168652818601935061285c565b612832856138aa565b60005b8381101561285457815481890152600182019150602081019050612835565b838801955050505b50505092915050565b60006128726029836138f7565b91507f457069632072616e646f6d20616e64206f726967696e616c20617374726f6e6160008301527f75742061766174617200000000000000000000000000000000000000000000006020830152602982019050919050565b60006128d86032836138e6565b91507f4552433732313a207472616e7366657220746f206e6f6e20455243373231526560008301527f63656976657220696d706c656d656e74657200000000000000000000000000006020830152604082019050919050565b600061293e601c836138e6565b91507f4552433732313a20746f6b656e20616c7265616479206d696e746564000000006000830152602082019050919050565b600061297e6002836138f7565b91507f3b7d0000000000000000000000000000000000000000000000000000000000006000830152600282019050919050565b60006129be6024836138e6565b91507f4552433732313a207472616e7366657220746f20746865207a65726f2061646460008301527f72657373000000000000000000000000000000000000000000000000000000006020830152604082019050919050565b6000612a246019836138e6565b91507f4552433732313a20617070726f766520746f2063616c6c6572000000000000006000830152602082019050919050565b6000612a646064836138f7565b91507f222c20226465736372697074696f6e223a2022412070726574747920636f6f6c60008301527f20616e6420756e6971756520617374726f6e617574206176617461722e222c2060208301527f22696d616765223a2022646174613a696d6167652f7376672b786d6c3b62617360408301527f6536342c000000000000000000000000000000000000000000000000000000006060830152606482019050919050565b6000612b16600c836138f7565b91507f2e636c732d367b66696c6c3a00000000000000000000000000000000000000006000830152600c82019050919050565b6000612b56602c836138e6565b91507f4552433732313a206f70657261746f7220717565727920666f72206e6f6e657860008301527f697374656e7420746f6b656e00000000000000000000000000000000000000006020830152604082019050919050565b6000612bbc6038836138e6565b91507f4552433732313a20617070726f76652063616c6c6572206973206e6f74206f7760008301527f6e6572206e6f7220617070726f76656420666f7220616c6c00000000000000006020830152604082019050919050565b6000612c22602a836138e6565b91507f4552433732313a2062616c616e636520717565727920666f7220746865207a6560008301527f726f2061646472657373000000000000000000000000000000000000000000006020830152604082019050919050565b6000612c886029836138e6565b91507f4552433732313a206f776e657220717565727920666f72206e6f6e657869737460008301527f656e7420746f6b656e00000000000000000000000000000000000000000000006020830152604082019050919050565b6000612cee602e836138e6565b91507f45524337323155524953746f726167653a2055524920736574206f66206e6f6e60008301527f6578697374656e7420746f6b656e0000000000000000000000000000000000006020830152604082019050919050565b6000612d546002836138f7565b91507f227d0000000000000000000000000000000000000000000000000000000000006000830152600282019050919050565b6000612d94600c836138f7565b91507f2e636c732d317b66696c6c3a00000000000000000000000000000000000000006000830152600c82019050919050565b6000612dd4600c836138f7565b91507f2e636c732d347b66696c6c3a00000000000000000000000000000000000000006000830152600c82019050919050565b6000612e146020836138e6565b91507f4552433732313a206d696e7420746f20746865207a65726f20616464726573736000830152602082019050919050565b6000612e546031836138e6565b91507f45524337323155524953746f726167653a2055524920717565727920666f722060008301527f6e6f6e6578697374656e7420746f6b656e0000000000000000000000000000006020830152604082019050919050565b6000612eba6016836138e6565b91507f43616e277420637265617465206d6f7265204e465473000000000000000000006000830152602082019050919050565b6000612efa602c836138e6565b91507f4552433732313a20617070726f76656420717565727920666f72206e6f6e657860008301527f697374656e7420746f6b656e00000000000000000000000000000000000000006020830152604082019050919050565b6000612f60600c836138f7565b91507f2e636c732d357b66696c6c3a00000000000000000000000000000000000000006000830152600c82019050919050565b6000612fa06029836138e6565b91507f4552433732313a207472616e73666572206f6620746f6b656e2074686174206960008301527f73206e6f74206f776e00000000000000000000000000000000000000000000006020830152604082019050919050565b6000613006602f836138e6565b91507f4552433732314d657461646174613a2055524920717565727920666f72206e6f60008301527f6e6578697374656e7420746f6b656e00000000000000000000000000000000006020830152604082019050919050565b600061306c600a836138f7565b91507f7b226e616d65223a2022000000000000000000000000000000000000000000006000830152600a82019050919050565b60006130ac6021836138e6565b91507f4552433732313a20617070726f76616c20746f2063757272656e74206f776e6560008301527f72000000000000000000000000000000000000000000000000000000000000006020830152604082019050919050565b6000613112601d836138f7565b91507f646174613a6170706c69636174696f6e2f6a736f6e3b6261736536342c0000006000830152601d82019050919050565b60006131526031836138e6565b91507f4552433732313a207472616e736665722063616c6c6572206973206e6f74206f60008301527f776e6572206e6f7220617070726f7665640000000000000000000000000000006020830152604082019050919050565b60006131b8600b836138f7565b91507f53504143455f434f4c4f520000000000000000000000000000000000000000006000830152600b82019050919050565b60006131f8600c836138f7565b91507f2e636c732d327b66696c6c3a00000000000000000000000000000000000000006000830152600c82019050919050565b6000613238600c836138f7565b91507f2e636c732d337b66696c6c3a00000000000000000000000000000000000000006000830152600c82019050919050565b61327481613a81565b82525050565b600061328682846127b5565b915081905092915050565b600061329d82856127b5565b91506132a982846127b5565b91508190509392505050565b60006132c182896127b5565b91506132cd82886127b5565b91506132d982876127b5565b91506132e582866127b5565b91506132f182856127b5565b91506132fd82846127b5565b9150819050979650505050505050565b600061331982866127e6565b915061332582856127b5565b915061333182846127e6565b9150819050949350505050565b600061334982612b09565b915061335582846127b5565b915061336082612971565b915081905092915050565b600061337682612d87565b915061338282846127b5565b915061338d82612971565b915081905092915050565b60006133a382612dc7565b91506133af82846127b5565b91506133ba82612971565b915081905092915050565b60006133d082612f53565b91506133dc82846127b5565b91506133e782612971565b915081905092915050565b60006133fd8261305f565b915061340882612865565b915061341382612a57565b915061341f82846127b5565b915061342a82612d47565b915081905092915050565b600061344082613105565b915061344c82846127b5565b915081905092915050565b6000613462826131ab565b915061346e82846127b5565b915081905092915050565b6000613484826131eb565b915061349082846127b5565b915061349b82612971565b915081905092915050565b60006134b18261322b565b91506134bd82846127b5565b91506134c882612971565b915081905092915050565b60006020820190506134e86000830184612725565b92915050565b60006080820190506135036000830187612725565b6135106020830186612725565b61351d604083018561326b565b818103606083015261352f8184612743565b905095945050505050565b600060408201905061354f6000830185612725565b61355c602083018461326b565b9392505050565b60006020820190506135786000830184612734565b92915050565b60006020820190508181036000830152613598818461277c565b905092915050565b600060608201905081810360008301526135ba818661277c565b90506135c9602083018561326b565b6135d66040830184612725565b949350505050565b600060208201905081810360008301526135f7816128cb565b9050919050565b6000602082019050818103600083015261361781612931565b9050919050565b60006020820190508181036000830152613637816129b1565b9050919050565b6000602082019050818103600083015261365781612a17565b9050919050565b6000602082019050818103600083015261367781612b49565b9050919050565b6000602082019050818103600083015261369781612baf565b9050919050565b600060208201905081810360008301526136b781612c15565b9050919050565b600060208201905081810360008301526136d781612c7b565b9050919050565b600060208201905081810360008301526136f781612ce1565b9050919050565b6000602082019050818103600083015261371781612e07565b9050919050565b6000602082019050818103600083015261373781612e47565b9050919050565b6000602082019050818103600083015261375781612ead565b9050919050565b6000602082019050818103600083015261377781612eed565b9050919050565b6000602082019050818103600083015261379781612f93565b9050919050565b600060208201905081810360008301526137b781612ff9565b9050919050565b600060208201905081810360008301526137d78161309f565b9050919050565b600060208201905081810360008301526137f781613145565b9050919050565b6000602082019050613813600083018461326b565b92915050565b6000604051905081810181811067ffffffffffffffff821117156138405761383f613c06565b5b8060405250919050565b600067ffffffffffffffff82111561386557613864613c06565b5b601f19601f8301169050602081019050919050565b600067ffffffffffffffff82111561389557613894613c06565b5b601f19601f8301169050602081019050919050565b60008190508160005260206000209050919050565b600081519050919050565b600081519050919050565b600082825260208201905092915050565b600082825260208201905092915050565b600081905092915050565b600061390d82613a81565b915061391883613a81565b9250827fffffffffffffffffffffffffffffffffffffffffffffffffffffffffffffffff0382111561394d5761394c613b79565b5b828201905092915050565b600061396382613a81565b915061396e83613a81565b92508261397e5761397d613ba8565b5b828204905092915050565b600061399482613a81565b915061399f83613a81565b9250817fffffffffffffffffffffffffffffffffffffffffffffffffffffffffffffffff04831182151516156139d8576139d7613b79565b5b828202905092915050565b60006139ee82613a81565b91506139f983613a81565b925082821015613a0c57613a0b613b79565b5b828203905092915050565b6000613a2282613a61565b9050919050565b60008115159050919050565b60007fffffffff0000000000000000000000000000000000000000000000000000000082169050919050565b600073ffffffffffffffffffffffffffffffffffffffff82169050919050565b6000819050919050565b82818337600083830152505050565b60005b83811015613ab8578082015181840152602081019050613a9d565b83811115613ac7576000848401525b50505050565b60006002820490506001821680613ae557607f821691505b60208210811415613af957613af8613bd7565b5b50919050565b6000613b0a82613a81565b91507fffffffffffffffffffffffffffffffffffffffffffffffffffffffffffffffff821415613b3d57613b3c613b79565b5b600182019050919050565b6000613b5382613a81565b9150613b5e83613a81565b925082613b6e57613b6d613ba8565b5b828206905092915050565b7f4e487b7100000000000000000000000000000000000000000000000000000000600052601160045260246000fd5b7f4e487b7100000000000000000000000000000000000000000000000000000000600052601260045260246000fd5b7f4e487b7100000000000000000000000000000000000000000000000000000000600052602260045260246000fd5b7f4e487b7100000000000000000000000000000000000000000000000000000000600052604160045260246000fd5b6000601f19601f8301169050919050565b613c4f81613a17565b8114613c5a57600080fd5b50565b613c6681613a29565b8114613c7157600080fd5b50565b613c7d81613a35565b8114613c8857600080fd5b50565b613c9481613a81565b8114613c9f57600080fd5b5056fe416e204e465420772f20494420257320686173206265656e206d696e74656420746f2025734142434445464748494a4b4c4d4e4f505152535455565758595a6162636465666768696a6b6c6d6e6f707172737475767778797a303132333435363738392b2fa2646970667358221220cbef0805f351904f4601a7666e84abcd5fa24756f6e24092ae731e3e0cdfe11564736f6c634300080000335468697320697320206d79204e465420636f6e74726163742e205945414820424142592e636c732d377b66696c6c3a236666643430303b7d2e636c732d387b66696c6c3a236666623630303b7d2e636c732d397b66696c6c3a6e6f6e653b7374726f6b653a236266643765323b7374726f6b652d6c696e656361703a726f756e643b7374726f6b652d6c696e656a6f696e3a726f756e643b7374726f6b652d77696474683a312e3770783b7d2e636c732d31307b66696c6c3a233130356136623b7d2e636c732d31317b66696c6c3a233931626465353b7d3c2f7374796c653e3c2f646566733e3c7469746c653e617374726f6e6175743c2f7469746c653e3c672069643d27617374726f6e617574273e3c672069643d27617374726f6e6175742d322720646174612d6e616d653d27617374726f6e617574273e3c636972636c652069643d276261636b2720636c6173733d27636c732d31272063783d273435272063793d2734352720723d2734322e35272f3e3c672069643d27617374726f6e6175742d332720646174612d6e616d653d27617374726f6e617574273e3c7061746820636c6173733d27636c732d322720643d274d33322e32382c38322e3476332e31364134322e34382c34322e34382c302c302c302c34352c38372e355638322e345a272f3e3c7061746820636c6173733d27636c732d322720643d274d34352c37392e32395637312e35314833382e373861332e31312c332e31312c302c302c312c302d362e32324834355635364833322e32385637392e32395a272f3e3c7061746820636c6173733d27636c732d332720643d274d34352c38322e3476352e316134322e34382c34322e34382c302c302c302c31322e37322d312e39345638322e345a272f3e3c7061746820636c6173733d27636c732d332720643d274d35312e32322c36352e323961332e31312c332e31312c302c302c312c302c362e323248343576372e37384835372e373256353648343576392e33335a272f3e3c706f6c79676f6e20636c6173733d27636c732d342720706f696e74733d2733322e32382037392e32392033322e32382038322e342034352038322e342035372e37322038322e342035372e37322037392e32392034352037392e32392033322e32382037392e3239272f3e3c7061746820636c6173733d27636c732d352720643d274d35342e33332c36382e3461332e31312c332e31312c302c302c302d332e31312d332e31314833382e373861332e31312c332e31312c302c302c302d332e31312c332e31315a272f3e3c7061746820636c6173733d27636c732d362720643d274d35342e33332c36382e344833352e363761332e31312c332e31312c302c302c302c332e31312c332e31314835312e323241332e31312c332e31312c302c302c302c35342e33332c36382e345a272f3e3c7061746820636c6173733d27636c732d332720643d274d33322e32382c37392e32395635364832342e3561332e31312c332e31312c302c302c302d332e31312c332e313176362e313968392e333376332e31314832312e333976332e313168392e333376332e31314832312e333976352e37356134322e33322c34322e33322c302c302c302c31302e38392c352e32325637392e32395a272f3e3c706f6c79676f6e20636c6173733d27636c732d322720706f696e74733d2733302e37322037342e35392033302e37322037312e34372032312e33392037312e34372032312e33392037312e34372032312e33392037342e35392032312e33392037342e35392033302e37322037342e3539272f3e3c706f6c79676f6e20636c6173733d27636c732d322720706f696e74733d2733302e37322036382e33362033302e37322036352e32352032312e33392036352e32352032312e33392036352e32352032312e33392036382e33362032312e33392036382e33362033302e37322036382e3336272f3e3c7061746820636c6173733d27636c732d322720643d274d35392e32382c37342e38375637312e373568392e33335636382e36344835392e32385636352e353368392e33335635392e303741332e31312c332e31312c302c302c302c36352e352c35364835372e37327632392e366134322e33322c34322e33322c302c302c302c31302e38392d352e32325637342e38375a272f3e3c706f6c79676f6e20636c6173733d27636c732d332720706f696e74733d2735392e32382037312e37352035392e32382037342e38372036382e36312037342e38372036382e36312037342e38372036382e36312037312e37352036382e36312037312e37352035392e32382037312e3735272f3e3c706f6c79676f6e20636c6173733d27636c732d332720706f696e74733d2735392e32382036352e35332035392e32382036382e36342036382e36312036382e36342036382e36312036382e36342036382e36312036352e35332036382e36312036352e35332035392e32382036352e3533272f3e3c7061746820636c6173733d27636c732d322720643d274d36312c34372e323961312e36342c312e36342c302c302c302c312e33312d312e3635563434612e362e362c302c302c312c2e362d2e36683061312c312c302c302c302c312d31762d322e3861312c312c302c302c302d312d316830612e362e362c302c302c312d2e362d2e365633362e333941312e36342c312e36342c302c302c302c36312c33342e373561312e35382c312e35382c302c302c302d312e38342c312e353576392e343441312e35382c312e35382c302c302c302c36312c34372e32395a272f3e3c7061746820636c6173733d27636c732d372720643d274d36312e35332c34302e3832612e38362e38362c302c302c312c2e38342e38382c312e31332c312e31332c302c302c302c2e32322d2e36372c312e30362c312e30362c302c312c302d322e31322c302c312e31342c312e31342c302c302c302c2e32322e3637412e38362e38362c302c302c312c36312e35332c34302e38325a272f3e3c7061746820636c6173733d27636c732d382720643d274d36312e35332c34322e313461312c312c302c302c302c2e38342d2e34342e38342e38342c302c312c302d312e36382c3041312c312c302c302c302c36312e35332c34322e31345a272f3e3c7061746820636c6173733d27636c732d342720643d274d36312e35332c34322e3441312e33372c312e33372c302c312c312c36322e38352c34312c312e33352c312e33352c302c302c312c36312e35332c34322e345a6d302d322e333961312c312c302c312c302c312c3141312c312c302c302c302c36312e35332c34305a272f3e3c7061746820636c6173733d27636c732d322720643d274d32392c34372e323961312e36342c312e36342c302c302c312d312e33312d312e3635563434612e362e362c302c302c302d2e362d2e36683061312c312c302c302c312d312d31762d322e3861312c312c302c302c312c312d316830612e362e362c302c302c302c2e362d2e365633362e333941312e36342c312e36342c302c302c312c32392c33342e373561312e35382c312e35382c302c302c312c312e38342c312e353576392e343441312e35382c312e35382c302c302c312c32392c34372e32395a272f3e3c7061746820636c6173733d27636c732d372720643d274d32382e38352c34302e3832612e38362e38362c302c302c312c2e38342e38382c312e31332c312e31332c302c302c302c2e32322d2e36372c312e30362c312e30362c302c312c302d322e31322c302c312e31342c312e31342c302c302c302c2e32322e3637412e38362e38362c302c302c312c32382e38352c34302e38325a272f3e3c7061746820636c6173733d27636c732d382720643d274d32382e38352c34322e313461312c312c302c302c302c2e38342d2e34342e38342e38342c302c312c302d312e36382c3041312c312c302c302c302c32382e38352c34322e31345a272f3e3c7061746820636c6173733d27636c732d342720643d274d32382e38352c34322e3441312e33372c312e33372c302c312c312c33302e31372c34312c312e33352c312e33352c302c302c312c32382e38352c34322e345a6d302d322e333961312c312c302c312c302c312c3141312c312c302c302c302c32382e38352c34305a272f3e3c7061746820636c6173733d27636c732d342720643d274d33362e30352c34352e30374835332e393561332e382c332e382c302c302c312c332e382c332e3876313361302c302c302c302c312c302c304833322e323561302c302c302c302c312c302c30762d313341332e382c332e382c302c302c312c33362e30352c34352e30375a272f3e3c7061746820636c6173733d27636c732d322720643d274d32392e32372c33382e31316131352e37332c31352e37332c302c312c312c33312e34352c3076362e363263302c372e37372d372c31342e30372d31352e37332c31342e30375332392e32372c35322e352c32392e32372c34342e37335a272f3e3c7061746820636c6173733d27636c732d392720643d274d32392e32372c33382e333763302d342e382c372d382e36392c31352e37332d382e36397331352e37332c332e38392c31352e37332c382e3639272f3e3c7061746820636c6173733d27636c732d392720643d274d36302e37332c34332e343963302c342e382d372c382e36392d31352e37332c382e3639732d31352e37332d332e38392d31352e37332d382e3639272f3e3c7061746820636c6173733d27636c732d312720643d274d36302e33332c33382e3576342e383563302c342e35352d362e38372c382e32332d31352e33332c382e3233732d31352e33332d332e392d31352e33332d382e34355633382e3563302d342e35342c362e38372d382e32322c31352e33332d382e32325336302e33332c33342c36302e33332c33382e355a272f3e3c7061746820636c6173733d27636c732d312720643d274d34352c35312e353863382e34372c302c31352e33332d332e36382c31352e33332d382e32335634302e373973302c2e30392c302c2e3133632d2e31332d342e34382d362e39342d382e30392d31352e33322d382e30395a272f3e3c7061746820636c6173733d27636c732d31302720643d274d34352c33322e3834632d382e33322c302d31352e30372c332e35352d31352e33312c382c302d2e30382c302d2e31362c302d2e323476322e353663302c342e35352c362e38372c382e34352c31352e33332c382e34355a272f3e3c2f673e3c672069643d277374617273273e3c636972636c6520636c6173733d27636c732d3131272063783d2733312e3339272063793d2731322e35392720723d27302e3532272f3e3c636972636c6520636c6173733d27636c732d3131272063783d2731322e3837272063793d2733302e30312720723d27302e3433272f3e3c636972636c6520636c6173733d27636c732d3131272063783d2732322e3034272063793d2732342e332720723d27302e3433272f3e3c636972636c6520636c6173733d27636c732d3131272063783d2733332e3738272063793d2732312e33312720723d27302e3333272f3e3c636972636c6520636c6173733d27636c732d3131272063783d2737362e3439272063793d2733312e39352720723d27302e3433272f3e3c636972636c6520636c6173733d27636c732d3131272063783d2731342e3631272063793d2735352e30352720723d27302e3333272f3e3c636972636c6520636c6173733d27636c732d3131272063783d2736392e32272063793d2735322e322720723d27302e3433272f3e3c636972636c6520636c6173733d27636c732d3131272063783d2736342e3031272063793d2732392e35382720723d27302e3433272f3e3c636972636c6520636c6173733d27636c732d3131272063783d2731392e3438272063793d2734392e33362720723d27302e3433272f3e3c636972636c6520636c6173733d27636c732d3131272063783d2737372e3133272063793d2734332e35312720723d27302e3433272f3e3c636972636c6520636c6173733d27636c732d3131272063783d2737302e3634272063793d2732352e38312720723d27302e3333272f3e3c636972636c6520636c6173733d27636c732d3131272063783d2735392e3137272063793d2731362e33352720723d27302e3333272f3e3c636972636c6520636c6173733d27636c732d3131272063783d2734352e3737272063793d2731322e32382720723d27302e3331272f3e3c636972636c6520636c6173733d27636c732d3131272063783d2731352e38272063793d2734302e35372720723d27302e3534272f3e3c2f673e3c2f673e3c2f673e3c2f7376673e3c73766720786d6c6e733d27687474703a2f2f7777772e77332e6f72672f323030302f737667272076696577426f783d27302030203930203930273e3c646566733e3c7374796c653e",
  "linkReferences": {},
  "deployedLinkReferences": {}
}